:020000020000FC
:107FA000FC018991999143E016D041E114C0FC0194
:107FB00089919991DC018991999160E80D901D90CA
:107FC00041E009D032966250C9F7E058F04045E0F0
:107FD00002D041E100C017B710FDFDCF47BFE895C3
:027FE000089502
:100000000C94000131D044D02FD042D02DD040D01C
:100010002BD03ED029D03CD027D03AD025D038D0D4
:1000200023D036D021D034D01FD032D01DD030D004
:100030001BD02ED019D02CD017D02AD015D028D034
:1000400013D026D011D024D00FD022D00DD020D064
:100050000BD01ED009D01CD007D01AD005D018D094
:1000600003D016D001D014D04A924FB64A92EA93E8
:10007000FA93FF91EF91EE0FFF1F45904F9245903D
:100080004F92F991E99149904FBE49900C946E00BE
:100090000E94B1050E949F020E949F020E94B40329
:1000A0000E94B9020E94B9020E94A6060E94A606FA
:1000B0000E9460060E94FF080E9460060E94CB0416
:1000C0000E94A6060E9483060A20494E20535441EE
:1000D000434B210018950000034442470E94AB02A5
:0200E000189571
:100100007E12000010000000000000000000000748
:10011000AA10000050189C1840015018006F816F01
:10020000A4B6BB242224332424BEA0EFADBFB7E0A4
:10021000BEBFC0EFD6E00C944F09D800043F4B4559
:1002200059009A938A9388279927C101A091C00009
:10023000A7FF08958091C6009A938A938FEF9FEF4E
:1002400008951C0204454D495400A091C000A5FF2B
:10025000FCCF8093C60089919991089544020321AF
:10026000494FA3E3A093C400AA27A093C500A8E127
:10027000A093C100A6E0A093C20008955E02456469
:100280006F4C49549A938A93FF91EF91EE0FFF1FA1
:1002900085919591F795E795EF93FF9308957E02E9
:1002A000446E65787400FF91EF91BF91AF91119703
:1002B00024F43196EF93FF930895AF93BF93EE0F1D
:1002C000FF1FA591B591AF93BF930895A002473F3B
:1002D0006272616E6368FF91EF91892B89919991A8
:1002E00059F03196EF93FF930895CE024662726102
:1002F0006E636800FF91EF91EE0FFF1FA591B5911E
:10030000AF93BF930895EC020745584543555445B4
:10031000959587958F939F93899199910895080357
:10032000044558495400BF91AF910895200301211D
:10033000FC01899199919183808389919991089584
:100340002E030140FC0181919191089542030249DD
:10035000400098DF1C013ED0BEDFB70193DF1E01D5
:1003600039D0B9DFBA01FC018591959108958ADFF2
:100370001C0102C087DF1E0138D0E4CF4E030349C1
:10038000434080DF1C0126D0A6DFCF017BDF1E01AA
:1003900021D0A1DFD201FC0199278491089572DF59
:1003A0001C0102C06FDF1E0120D0C2C07E030642C6
:1003B00055464645520066DF01001DD18CDFE30142
:1003C00061DF800808955EDF00080895AE030442EF
:1003D00055463F00B7DFFFD01ED154DF807F0BD1E1
:1003E0000895CE03044255464000ACDFE4DFE9D077
:1003F00049DF7F0000D10FC1E4030249210042DF41
:100400001C01E8DF68DF15023DDF1E01E3DF63DF6B
:10041000140238DF1E0196DF35DF0080ECD05BDF91
:10042000120208D01AD028D03BD04AC0FA030546A1
:100430004C55534827DF1E0185DFBCD023DF807F6A
:10044000DAD0B8D00E94D03FBCD0B5DFBAD00C947F
:10045000D73F2E0404404F4C440014DF1E0172DFCE
:10046000AADFB9D00FDF807FC6D0ABD00C9479095A
:10047000540404214F4C44009DD004DF807FBBD046
:1004800001DF1E019ED0A7D05DDFFCDE0100B3D0EE
:10049000BAD097D04DCF7204065357495443480001
:1004A000F1DE1E014FDFEEDE1C014CDFEBDE1E0134
:1004B0003FDFE8DE1C013CCF980404214E45570085
:1004C000E1DE7E0098D0DEDE1C013CDF74DF9BD0D5
:1004D0002FDFD8DE1C016ED035DFD4DE008093D054
:1004E00070D026CFBA0405464C55534803D0D8DF08
:1004F00001D0D6CFC7DE1E0125DF5CD0C3DE008071
:100500007AD0E9DE8A02BEDEFF7F75D0BBDE1E0137
:100510000FDF90CF49C0E60402432100FC0189911E
:10052000999180838991999108951805024340001B
:10053000FC019927808108952C0542523E009A9330
:100540008A93BF91AF919F918F91AF93BF9308957D
:100550003A05025240009A938A93BF91AF919F91BE
:100560008F918F939F93AF93BF9308955205423E0F
:100570005200BF91AF918F939F93AF93BF93899197
:10058000999108956E05035350409A938A93CE0132
:100590000895860503535021EC018991999108959E
:1005A00094050444524F5000899199910895A205F1
:1005B000034455509A938A930895B00504535741C4
:1005C0005000DC0189919991BA93AA930895BC05D2
:1005D000044F564552009A938A938A819B810895CD
:1005E000D00502303C009923C1010CF40197089515
:1005F000E20503414E44A991B9918A239B230895B2
:10060000F205024F5200A991B9918A2B9B2B0895B4
:10061000020603584F52A991B9918A279B27089542
:10062000120603554D2BA991B9918A0F9B1F9A93DE
:100630008A9399278827881F0895220645646F5654
:1006400041529A938A93FF91EF91EE0FFF1F85918C
:10065000959108953C060527424F4F54F2DF000163
:100660005606044241534500ECDF04016206035480
:100670004D50E7DF06016E06045350414E00E1DFA6
:1006800008017806033E494EDCDF0A018406042394
:1006900054494200D6DF0C018E060427544942001B
:1006A000D0DF0E019A0605274556414CCADF1001DE
:1006B000A60603484C44C5DF1201B20607434F4E5D
:1006C00054455854BEDF1401BC0602435000B9DF44
:1006D0001601CA0602445000B4DF1801D406044CC7
:1006E00041535400AEDF1A01DE0602322A00880FA1
:1006F000991F0895EA0602322F009595879508956F
:10070000F60607414C49474E454401968E7F0895B1
:10071000020702424C009A938A9380E29927089537
:100720001207043F44555000082F092B11F09A93EB
:100730008A930895220703524F548C0129913991CD
:10074000899199913A932A931A930A9308953607B7
:10075000053244524F508991999189919991089508
:10076000500704324455500036DF35CF6207012B65
:1007700009911991800F911F08956E0706494E56F1
:10078000455254008095909508957C07064E454744
:1007900041544500F7DF019608958C0707444E4504
:1007A00047415445EFDFE5DEEDDF6CDD01003BDF67
:1007B000C6DEDECF9C07012D09911991081B190B8C
:1007C000C8010895B60703414253F4DE0CDF83DD10
:1007D000EA03E0CF0895C607013D1DDF7CDDF3038A
:1007E00051DD000008954EDDFFFF0895D807025542
:1007F0003C00BADF10DFF7DE6EDD0104E2DED4DE9E
:10080000F2CEDADFF0CEEE07013CAEDF04DFEBDE46
:1008100062DD0C04C9DEE7CECFDFE5CE0808034D6C
:100820004158A2DFF2DF57DD1604CBDEBDCE1E0835
:10083000034D494E99DFC5DEE8DF4DDD2004C1DE02
:10084000B3CE30080657495448494E00C4DEB4DFE1
:1008500090DEB2DF74DECDCF440806554D2F4D4FEC
:1008600044007C01299139910991199140E1552762
:10087000000F111F221F331F551F2E153F05520554
:1008800018F003952E193F094A9589F73A932A9350
:10089000C80108955A08054D2F4D4F448BDEA3DE45
:1008A00089DE67DE18DD580475DF63DE7BDF47DE37
:1008B00060DE80DE98DE0FDD5F044DDE59DF3FDE57
:1008C000D0DF3DDE08DD67047CDE64DF7ADE08957C
:1008D0009608042F4D4F44007EDE85DE72DEDECFAB
:1008E000D208034D4F44F8DF5FCEE208012FF4DF5A
:1008F00068DE5ACEEC0803554D2A8C0189919991F6
:10090000809FF00122273327909FF00D211D331D7A
:10091000819FF00D211D331D919F200D311DCF01B1
:100920009A938A93C9010895F608012A04D03CCE0F
:100930002A09024D2A0018DF6EDE55DE1ADE45DF79
:1009400040DE43DFDADFFBDDC6DCA7042BDF0895E2
:100950003209052A2F4D4F440CDEEDDFF0DD9ECF2E
:100960005209022A2F00F8DF2CDE1ECE6209053E56
:100970004348415208951EDECEDE84DC7F0066DFF0
:10098000AADCC304089510DE7DDC5F0008956E09C3
:10099000054445505448F9DD75DCEE0612DE0CDFE7
:1009A000ACCE9009045049434B000196A0DEEDDD2A
:1009B000DFDEC8CCA409022B210003DE0CDEC2DC82
:1009C000D7DEFFDDB5CCB60905434F554E54FC01CB
:1009D0000191CF019A938A93802F99270895C8098E
:1009E0000649434F554E5400E5DD0196EADDC9CC7A
:1009F000E0090448455245006FDEA4CCF2090350DB
:100A00004144FADF3FDC4000B3CEFE0903544942C3
:100A100041DE029697CC0C0A084045584543555490
:100A2000450090DC81DE57DC160572DC0895180A5B
:100A300005434D4F56459DDD06C09BDDC8DF8BDD70
:100A40006DDD7DDD01962FDC1D0585CE300A055557
:100A5000505045520895AEDD15DC610013DC7B007B
:100A6000F5DE39DC36050EDC5F00C5DD08954E0A83
:100A700005554D4F56457DDD07C07BDDA8DFEADF1C
:100A80006ADD4CDD5CDD01960EDC3D0564CE700A4E
:100A90000446494C4C0095DD6CDD93DD03C064DEFB
:100AA0003DDD019600DC4F0556CE900A05444947CE
:100AB0004954E8DB09008FDDA8DEE4DB07009BDD9D
:100AC00057DEE0DB300054CEAC0A074558545241A3
:100AD0004354D8DB000075DDC4DE73DDEACFCA0AFB
:100AE000023C23008EDFE7DD23CCE00A04484F4CB4
:100AF0004400E1DD27DC01975DDDDDDD19DC0ECD95
:100B0000EC0A0123B1DD1EDCE4DFF3CF020B02238C
:100B10005300F8DF4FDDDFDB8E05FBCF08950E0BB2
:100B2000045349474E005FDDD6DB9905ABDB2D0052
:100B3000E0DF0895200B02233E0036DDBCDD02DC41
:100B400060DF49DD39CE360B0373747233DD11DD9E
:100B50003CDEC8DFDEDFF3DCE6DFEFCF480B034827
:100B6000455890DB100080DDE3CB5E0B0744454326
:100B7000494D414C87DB0A0077DDDACB6C0B06442C
:100B8000494749543F00F5DC7DDB300015DE7ADB58
:100B9000090021DD3ADE9FDBD50574DB07000CDEA2
:100BA00009DD70DB0A0031DE2EDD04DDC8DC21CE7C
:100BB0007E0B074E554D4245523F56DDC3DBD9DC17
:100BC00061DB000008DD03DF06DDB2DC5BDB240057
:100BD00004DE81DBF005C5DFF4DC0196F2DC019771
:100BE000FADCA6DC4FDB2D00F8DDC3DCEADCB3DC8D
:100BF000E3DDE7DCB0DCBCDD97DD6DDB20060197D3
:100C0000B8DCD8DCB6DC94DC2FDD9CDBBCDF63DB3E
:100C10001906D7DC29DD96DB89DEAADD90DC01969A
:100C200042DB0106C1DC97DC56DB1706B3DDC9DC0D
:100C300006C085DC84DC8FDD8EDD24DB0000BADCC1
:100C40007EDC89DD7CDC10DD73CBB20B034B4559B8
:100C5000E8DA41DB280608954C0C05535041434522
:100C60005ADDF3CA5A0C054348415253AADC81DCD1
:100C700002C0A0DCEADA17DB390696CC660C065314
:100C800050414345530047DDF1CF7E0C0454595089
:100C900045006FDC03C09BDE6DDED7DA04DB4B065C
:100CA00083CC8C0C05495459504563DC03C09CDE51
:100CB00061DECBDAF8DA570677CCA40C0243520097
:100CC000E1DA0D00C2DADEDA0A00BFCABC0C436406
:100CD0006F2435DC34DC6EDC6DDCFC01EE0FFF1FB5
:100CE00085919591992709DD43DD019642DC69DC08
:100CF00040DCFDDC0895CE0C4324227CEADF08951D
:100D0000F80C432E227CE5DF6FDECFCF020D022EE2
:100D100052002FDC1BDF13DC5EDC4EDDB4DFB9CF0D
:100D20000E0D03552E5225DCDDDEF3DE06DF07DC7B
:100D300052DC42DDA8DFADCF220D02552E00D2DEFF
:100D4000E8DEFBDE8DDFA5CF3A0D012E8DDCFADA71
:100D500099DA0A0060DCBFDAAE06F1CFF7DE80DF99
:100D600098CF4A0D013FEEDAF1CF640D0570617244
:100D700073657FDCDDDA2FDCFCDB1CDCACDAFB0628
:100D8000019777DCD5DBC7DC28DDA5DADA06F1DBF5
:100D9000C2DC21DCCDDB10DD26DCF4DC9CDAD906FC
:100DA000019681DAC806CBDBFFDB6CDA000002DCDF
:100DB0000895C5DB10DC05DCDCDB5BDCB9DB0BDCC0
:100DC000B7DBFADC56DCB4DBA6DC07DD84DAE90647
:100DD0000ADC81DAF106019666DADD06EBDBC9DBB7
:100DE00005C0ADDBE1DBE6DB0196C3DBF4DBE4DC75
:100DF000A6DBA5DBE1CCEFDBA2DBDECC6C0D055086
:100E000041525345B6DB04DE3FDC9CDAB1DC42DC08
:100E100099DA3ADC97DAD0DC92DBABDF35DCCDCD8A
:100E2000FE0D822E28002EDA2900ECDF32CF220EB2
:100E3000812828DA2900E6DF8ECC300E815C5C0048
:100E400021DA0D00DFDF87CC3C0E0443484152001D
:100E500062DCD8DFA9DB6CCB4A0E05544F4B454E04
:100E60005ADCD0DF0FDA1F00E5DCC6DD7DDC56DBA7
:100E70007BDC7EDC019606DA0000A3DB4FDB01960B
:100E8000A0DBF9DDB9CD5A0E04574F524400BADF4A
:100E9000B3DD6ADC43DB68DC6BDC0196F3D9000070
:100EA00090DB3CDB01968DDBC6DDA6CD880E054EC2
:100EB000414D453E99DDE6D91F009DDB59DC25CC2F
:100EC000AE0E0553414D453F18DC53DB10C083DBAC
:100ED00042DB0DDC4DDC36DA7EDB3DDB08DC48DC5A
:100EE00038DA6ADC21DCF7D9770729DB5DCBDBD97F
:100EF0006707C8D900000895C20E0466696E6400D1
:100F000060DB58DB15DBB5DB13DA54DB1BDA31DBD6
:100F1000029657DB4FDBDFD99F074CDB1ADAB2D9D9
:100F20003FFF69DB18DB77DBD6D99A070296AAD98F
:100F3000FFFF04C002969DDB05DAC6DF05C0FFDABD
:100F400033DB3FDB02973DCBC6D9A907049701DA13
:100F5000E1CFF5DA29DB35DB27DB02972BDBAADFD4
:100F600030CBFA0E054E414D453FACDBEBD9C8CF37
:100F7000640F025E4800FDDA2EDBE1DA22DB2BDBB8
:100F80004ADBA9D9CC077ED908005FD90197C3DB1A
:100F90005CD978D9080059D90895720F035441508B
:100FA00009DB53D918DBBADA019608959C0F046B5C
:100FB00054415000FFDA0D978ED9E40708978BD97A
:100FC000E307A9DBEDCFD7CFEFDAFBDAEDDAF2CA30
:100FD000AE0F0661636365707400FDDAC9DBFBDA8E
:100FE000C3DB19DB78D9010833DEE4DA94DBE4DB18
:100FF00049D9FF00FEDB6FD9FF07D2DF01C0DADF7E
:10100000EFCFD2DAE8DAD8CBD20F064558504543B5
:101010005400E3DF34DB8CD9C7CA0A1005515545AB
:101020005259F6DC2FD95000D8DF34DB81D9BCDA35
:1010300029D9000029DB7CC91C10054552524F52AA
:101040000FDEC5DC26DE1ED93F00FFD80DD038DE0E
:101050004DDAC0EFD6E077C03A100C4552525F48E7
:10106000414E444C494E47000C94AB025A100A4181
:101070004C4C4F575F424F4F54000C94AB020895B5
:101080006E104661626F7274220025D94C0821DE11
:10109000ABDC0BDEDCDF57C01CDE86CA82100A2404
:1010A000494E54455250524554005FDF3DDB13D941
:1010B00067084FD9E7D840009EDAE7DF0D20636F5D
:1010C0006D70696C65206F6E6C7922D9089575DD3D
:1010D00002D96B080895B4CF9E10815BD3D8AA10B3
:1010E000E5DA26C9DA10032E4F4BCCD8AA10DEDA87
:1010F00029D973DBF0D8800806DE0420E5A5BD20E1
:10110000DFCDE610063F535441434B0044DC6BDA1D
:10111000BCDF0A20756E646572666C6F7700089597
:101120000411044556414C009BDE44DA01DAD3D861
:101130009D08BCDA76DCEADFF7CF36DAD6CF2211AB
:10114000045155495400A0EFADBFB7E0BEBF9AD8D7
:101150000007A6DAEDD8C2DF95D8060076D861DFA1
:10116000E3DFFACF401101277BDEFFDEB4D8B908F8
:10117000089566CF66110444554D500083D807008A
:10118000F8D99EDD17DA7ED80500CDDD69DD7AD885
:101190000F00EFD91CDC76D80300C5DD84D8CA085F
:1011A0005FDD08DA6FD8100007DB6CD8100071DD46
:1011B0007AD8C108F9C97611054944554D5062D80D
:1011C0000700D7D97DDDF6D95DD80500ACDD48DD57
:1011D00059D80F00CED908DC55D80300A4DD63D858
:1011E000EB083EDDE7D94ED81000E6DA4BD8100008
:1011F0005CDD59D8E208D8C9B811022E5300CBDB08
:10120000B8D903C0A8D9D1DBA1DD4DD802097BDD57
:1012100004203C7370000895FA11053E4E414D457F
:10122000A8D950DA8FD8C6D956D82009C3D942DEFA
:1012300092D9F1D950D8200902978BD85BD81309DD
:101240007ED9B2C91A12032E4944CEDB1BD81F0027
:10125000D2D92BCD461205574F52445331DD32DAE5
:1012600071D862DA38D83B09A5D9FADCEEDF0297EB
:1012700070D840D83109089556120268690020DDFF
:1012800042DD1133323865466F727468204445562A
:10129000302E373415CD7A1204434F4C44000E944F
:1012A00031010E944201000185D90E9479090E9402
:1012B00042011E0147D8D1D8F3D80E9442011E0135
:1012C00041D8CBD8EDD847DA0E943D08C7D9A9DB71
:1012D0003ACF98120545524153450C94D03FD41251
:1012E0000557524954450C94D73FE01204524541EA
:1012F0004400DC0189919991FC018991999160E800
:1013000005900D926150E1F70895EC1202312B0027
:10131000019608950C1302312D00019708951613BC
:1013200002322B0002960895201302322D000297FC
:1013300008952A13013E29913991281739070DC0C4
:10134000341302443E000991199129913991E99091
:10135000F990E016F10628073907C1011CF011F0D9
:10136000019708950895421302442B002991399161
:10137000E990F99049915991240F351F8E1D9F1DB9
:101380003A932A930895681302442D0029913991C4
:10139000E990F99049915991421B530BE80AF90AD7
:1013A0005A934A93C7010895881305414C4C4F54F2
:1013B0000E946C030C94DD04AA130649414C4C4F67
:1013C00054000E9467030C94DD04BA13012C0E94A0
:1013D00067030E94A2010E94DA020E9492090E9401
:1013E00067030E9498010C94FF01CC130563616CA4
:1013F0006C2C0E9442010E940E94E709E8CFEC1386
:10140000895B434F4D50494C455D0E94B4080E9492
:101410007D03EFCF001447434F4D50494C450E9488
:101420009F020E9477030E94DA020E94A2010E949A
:10143000E7090E9492090E94DA020E94A2010E941A
:10144000E7090E9492090E947D030E94B902089553
:101450001614874C49544552414C0E9442014201A6
:101460000E94F909B4CF521403242C220E94420195
:1014700022000E9447070E94DA020E9498020E94FE
:101480007D030E94B9020E94DA020E94A2010E941A
:10149000E7090E9492090E945301430A0C94D40266
:1014A000681485424547494E0E9467030C94A20187
:1014B000A21483464F520E944201B9020E94F909C8
:1014C000F3CFB214844E455854000E944201530198
:1014D0000E94F9090E947D037ACFC41485554E54A9
:1014E000494C0E9442016B010E94F9090E947D0350
:1014F0006ECFDC1485414741494E0E9442017A017A
:101500000E94F9090E947D0362CFF41482494600CB
:101510000E9442016B010E94F9090E94540A0E9434
:10152000420102004ECF0C158541484541440E94BE
:1015300042017A010E94F9090E94540A0E94420164
:1015400002000C94E109281586524550454154008B
:101550000E947D0A0E94540A0E947D030E94E102BB
:101560000C94FF014815845448454E000E94540ACB
:101570000E947D030E94E1020C94FF0166158341E5
:1015800046540E94D4020E94970A0E94540A0C9466
:10159000E1027E1584454C5345000E94970A0E9443
:1015A000E1020C94B60A9415855748494C450E94AF
:1015B000880A0C94E102A8158641424F5254220039
:1015C0000E94420145080E94F9090E94360A0895C6
:1015D000B815822422000E9442017E060E94F90969
:1015E0000E94360A0895D215822E22000E944201DE
:1015F00083060E94F9090E94360A0895E815073FFC
:10160000554E495155450E94DA020E94B5070E9485
:101610006B01160B0E9483060720726544656620E5
:101620000E94EB020E94E7040E9449060C94D40237
:10163000FE1503242C6E0E94DA020E9498020E947A
:101640006B01470B0E94030B0E9472030E94A201D0
:101650000E94E7090E9467030E94A2010E94720390
:101660000E9498010E94DA020E9498020E947D0363
:101670000E94B9020E94DA020E94A2010E94E709B8
:101680000E9492090E9453013A0B0C94D4020E94CA
:101690007E0605206E616D650C94200832160824C4
:1016A000434F4D50494C45000E94B5070E9494039A
:1016B0000E946B016B0B0E94A9010E9442018000F5
:1016C0000E94FB020E946B01670B0C9488010E9430
:1016D0007D030C94F9090E94DD050E946B01720BD9
:1016E0000C942D0A0C9420089E16054F5645525412
:1016F0000E9472030E94A2010E9462030C9498014E
:10170000EA16C13B0E94420108950E94E7090E9427
:101710006E080C94780B0217015D0E944201A81616
:101720000E9456030C9498011817013A0E94300742
:101730000E941B0B0C948D0B2A1709494D4D4544F3
:10174000494154450E94420180000E9472030E9458
:10175000A2010E94A9010E9403030E9472030E9439
:10176000A2010C94FF013A1706435245415445002B
:101770000E9430070E941B0B0E94780B0E944201BE
:1017800021030E94F9090E946C030E94A2010C949B
:10179000E709681708434F4E5354414E54000E94C6
:1017A00030070E941B0B0E94780B0E94420121030C
:1017B0000E94F9090C94E7099417085641524941CF
:1017C000424C45000E94B80B0E94420102000C945A
:1017D000D809BA170327434E0E9430070E94B50765
:1017E0000E94B4030E946B01B9080E94D4020895BC
:1017F0000C942008D417084F50454E5F494E5400B2
:101800000E9442015F000E9498020E9442018000F3
:101810000E9403030E9442015F000E948E020E9408
:10182000420164000E94B9020E945301140C0E94FC
:1018300042015F000E9498020E9442017F000E94C4
:10184000FB020E9442015F000E948E020895F6177B
:101850000454455354000E9472030E94A2010E9446
:10186000DA020E94A6060E9494030E9428060E94A3
:101870008B030E94ED030E94FB020E946B014D0C42
:101880000E94DA020E9430060E9425090E949709F0
:0C1890000E94A9010E947A012F0C08950B
:00000001FF
